:100000000C9446000C9465000C9465000C946500FB
:100010000C9465000C9465000C9465000C946500CC
:100020000C9465000C9465000C9465000C946500BC
:100030000C9465000C941E020C9465000C946500F1
:100040000C9465000C9465000C9465000C9465009C
:100050000C9465000C9465000C9465000C9465008C
:100060000C9465000C9465000C9465000C9465007C
:100070000C9465000C9465000C9465000C9465006C
:100080000C9465000C9465000C94650011241FBE4F
:10009000CFEFD0E4DEBFCDBF11E0A0E0B1E0EAEEEB
:1000A000F0E100E00BBF02C007900D92AE32B10745
:1000B000D9F721E0AEE2B1E001C01D92A537B20749
:1000C000E1F70E94C5050C9473080C940000CF93CF
:1000D000DF9300D01F92CDB7DEB789836A834B834D
:1000E0008B81882371F08A81282F30E081E090E0B5
:1000F00002C0880F991F2A95E2F7982F8981892BD2
:100100000EC08A81282F30E081E090E002C0880F85
:10011000991F2A95E2F7982F9095898189230F904E
:100120000F900F90DF91CF910895CF93DF9300D080
:10013000CDB7DEB789836A838A81282F30E081E0DA
:1001400090E002C0880F991F2A95E2F7982F8981C5
:1001500089230F900F90DF91CF9108950F931F93F4
:10016000CF93DF93CDB7DEB702E210E040E064E06A
:100170008FEF0E946700F8018083000080E290E02A
:10018000FC018081809560E00E949500882311F039
:1001900081E3D3C080E290E0FC018081809561E042
:1001A0000E949500882311F084E3C7C080E290E0AC
:1001B000FC018081809562E00E949500882311F007
:1001C00087E3BBC080E290E0FC018081809563E022
:1001D0000E949500882311F08AE2AFC002E210E08D
:1001E00040E065E08FEF0E946700F8018083000027
:1001F00080E290E0FC018081809560E00E949500A3
:10020000882311F082E399C080E290E0FC018081B4
:10021000809561E00E949500882311F085E38DC0F0
:1002200080E290E0FC018081809562E00E94950070
:10023000882311F088E381C080E290E0FC01808196
:10024000809563E00E949500882311F080E375C0DB
:1002500002E210E040E066E08FEF0E946700F801E4
:100260008083000080E290E0FC018081809560E066
:100270000E949500882311F083E35FC080E290E044
:10028000FC018081809561E00E949500882311F037
:1002900086E353C080E290E0FC018081809562E0BB
:1002A0000E949500882311F089E347C080E290E026
:1002B000FC018081809563E00E949500882311F005
:1002C00083E23BC002E210E040E067E08FEF0E9473
:1002D0006700F8018083000080E290E0FC018081EB
:1002E000809560E00E949500882311F081E425C08C
:1002F00080E290E0FC018081809561E00E949500A1
:10030000882311F082E419C080E290E0FC01808132
:10031000809562E00E949500882311F083E40DC06F
:1003200080E290E0FC018081809563E00E9495006E
:10033000882311F084E401C080E0DF91CF911F9108
:100340000F910895CF93DF9300D000D0CDB7DEB7E3
:1003500069837A838B839C8389819A81AB81BC81F9
:100360008093000190930101A0930201B0930301D7
:100370008091000190910101A0910201B0910301CF
:1003800080932F0190933001A0933101B0933201FB
:1003900000000F900F900F900F90DF91CF91089574
:1003A000CF93DF93CDB7DEB781E890E02BE0FC017F
:1003B000208388E890E02DE730E0FC013183208342
:1003C0008FE690E022E0FC01208384E890E0FC01CD
:1003D000118210828091000190910101A09102018F
:1003E000B091030180932F0190933001A0933101CC
:1003F000B09332018FE590E02FE530E0F9012081E4
:100400002068FC0120830000DF91CF910895CF93F5
:10041000DF93CDB7DEB781E890E0FC0110820000E9
:10042000DF91CF910895CF93DF93CDB7DEB781E011
:1004300080932E010000DF91CF9108951F920F92BB
:1004400000905F000F92112400905B000F922F9399
:100450003F934F935F936F937F938F939F93AF934C
:10046000BF93EF93FF93CF93DF93CDB7DEB7809128
:100470002F0190913001A0913101B091320101978B
:10048000A109B10980932F0190933001A09331010C
:10049000B093320180912F0190913001A0913101F0
:1004A000B0913201892B8A2B8B2B91F40E9413027D
:1004B0008091000190910101A0910201B09103018E
:1004C00080932F0190933001A0933101B0933201BA
:1004D0000000DF91CF91FF91EF91BF91AF919F917C
:1004E0008F917F916F915F914F913F912F910F90DD
:1004F00000925B000F9000925F000F901F90189584
:10050000CF93DF93CDB7DEB72C970FB6F894DEBF4D
:100510000FBECDBF6D837E838F83988729873A87EF
:100520004B875C878D819E81AF81B88529853A850F
:100530004B855C85BC01CD010E94A207DC01CB018B
:1005400089839A83AB83BC8389819A81AB81BC8187
:10055000892B8A2B8B2B29F489859A85AB85BC85C1
:1005600011C089859A85AB85BC858D839E83AF83B9
:10057000B88789819A81AB81BC8189879A87AB874B
:10058000BC87D0CFBC01CD012C960FB6F894DEBF4E
:100590000FBECDBFDF91CF910895CF93DF9300D0F1
:1005A0001F92CDB7DEB789837B836A8389818A30C6
:1005B00031F48A819B81BC018DE00E94CD0280ECE8
:1005C00090E0FC018081882F90E080729927892B30
:1005D000B1F386EC90E02981FC01208380E090E07B
:1005E0000F900F900F90DF91CF910895CF93DF93ED
:1005F00000D0CDB7DEB79A8389830E94AE00809386
:10060000700189819A818230910521F183309105B1
:100610002CF4009749F0019761F02FC083309105C9
:10062000F1F0049709F129C081E090E09A83898371
:100630002AC080917001823421F482E090E09A8394
:100640008983809170018134D9F483E090E09A83AA
:10065000898316C084E090E09A83898314C084E083
:1006600090E09A8389830FC080917001882351F4B0
:1006700081E090E09A83898305C01A82198203C0C1
:10068000000001C0000089819A818230910531F01B
:1006900083309105E4F0039761F01EC0809113014F
:1006A0008C3FB9F080911301869580688093130187
:1006B00010C080911301873E71F080911301882F43
:1006C00090E0880F991F81608093130104C000009F
:1006D00003C0000001C0000089819A810F900F9033
:1006E000DF91CF910895CF93DF9300D000D000D059
:1006F000CDB7DEB78C836D834E839C818D81892B32
:10070000809589838C81982F96958D81892B80681F
:1007100080958A838C81882F90E0880F991F982F6D
:100720008D81892B816080958B838981882319F045
:1007300081E090E014C08E81823031F48B81882377
:1007400019F082E090E00BC08E81813031F48A8113
:10075000882319F082E090E002C080E090E02696C5
:100760000FB6F894DEBF0FBECDBFDF91CF910895D5
:10077000CF93DF9300D0CDB7DEB79A8389830E94F1
:10078000AE008093700189819A81892B19F01A82B9
:10079000198201C0000089819A81892B09F0B1C0BA
:1007A000809117018E3F19F482E0809319018091A6
:1007B0001601823079F420911901909115018091F0
:1007C0001701422F692F0E947303019719F41092A9
:1007D000180123C0809116018230F9F4209119018B
:1007E0009091150180911701422F692F0E94730388
:1007F000029799F480911901823031F481E080935D
:1008000019011092180109C080911901813029F451
:1008100082E08093190110921801809117018F3E98
:1008200019F481E08093190180911601803481F4DC
:10083000209119019091130180911701422F692F86
:100840000E947303019721F481E08093180125C071
:1008500080911601803409F52091190190911301BE
:1008600080911701422F692F0E9473030297A9F408
:1008700080911901823039F481E08093190181E07F
:10088000809318010AC080911901813031F482E00F
:100890008093190181E080931801809118018130C3
:1008A00031F48091160186958093160105C08091E0
:1008B0001601880F8093160180911901813039F457
:1008C00080911701869580688093170109C08091F7
:1008D0001701882F90E0880F991F8160809317017E
:1008E00080917001853361F488E0809316018FEE6A
:1008F0008093170181E08093180181E080931901B2
:10090000000089819A810F900F90DF91CF91089517
:10091000CF93DF9300D01F92CDB7DEB79B838A833E
:100920009091170180911501892B809589838A8187
:100930009B818130910551F082309105E9F0892B3E
:10094000F9F481E090E09B838A831EC080911601B8
:100950008230C8F0809118018130A9F40E942308E8
:100960002AE530E0B9010E948E07892B61F482E00C
:1009700090E09B838A8307C081E090E09B838A8319
:100980001B821A8201C000008A819B81009749F175
:10099000029751F58981882379F08091190181307E
:1009A00059F4809115018C3F39F08091150186959D
:1009B00080688093150117C089818823A1F08091F8
:1009C0001901823081F480911501873E61F0809198
:1009D0001501882F90E0880F991F81608093150181
:1009E00002C0000001C000008A819B810F900F901F
:1009F0000F90DF91CF910895CF93DF93CDB7DEB7FE
:100A000027970FB6F894DEBF0FBECDBF9F838E83AE
:100A10008E819F81892B19F01F821E8201C00000E8
:100A20008E819F81892B09F066C080911701809586
:100A300089838091130180958A8380911501809527
:100A40008B831D821C8251C08C819D8185599E4F54
:100A5000FC0110828981882F90E081709927892B71
:100A600041F0209116018C819D8185599E4FFC019A
:100A700020838A81882F90E081709927892B81F0CB
:100A80008C819D8185599E4FFC019081809112013E
:100A9000292F282B8C819D8185599E4FFC01208315
:100AA0008B81882F90E081709927892B81F08C8130
:100AB0009D8185599E4FFC01908180911401292FC1
:100AC000282B8C819D8185599E4FFC012083898133
:100AD000869589838A8186958A838B8186958B8387
:100AE0008C819D8101969D838C838C819D8105974E
:100AF00008F4AACF00008E819F8127960FB6F89444
:100B0000DEBF0FBECDBFDF91CF910895CF93DF93AE
:100B100000D0CDB7DEB79A83898389819A81892BEA
:100B200019F01A82198201C0000089819A81892BEB
:100B300009F024C088E290E020913301222F30E0B8
:100B400025593E4FF9012081FC0120838BE290E082
:100B500020913301222F30E0265E3E4FF9012081A3
:100B6000FC012083809133018F5F8093330180915A
:100B70003301853010F010923301000089819A8191
:100B80000F900F90DF91CF9108950F931F93CF9304
:100B9000DF93CDB7DEB72F970FB6F894DEBF0FBE49
:100BA000CDBF80E090E00E947B07DC01CB010E947A
:100BB000270881E290E020EFFC01208382E290E0B0
:100BC0002FE0FC01208384E290E02FEFFC012083E2
:100BD00085E290E0FC01108287E290E02FEFFC01BB
:100BE000208388E290E0FC0110828AE290E02FEFFF
:100BF000FC0120838BE290E0FC0110828AE0E3E2BA
:100C0000F1E0DE01169601900D928A95E1F785E0FC
:100C100090E09C838B838FEF8D838D818093340153
:100C200084E690E0A0E0B0E0809335019093360137
:100C3000A0933701B093380180913501909136012E
:100C4000A0913701B09138018093390190933A0116
:100C5000A0933B01B0933C0186EF92E090933E015C
:100C600080933D018D8180933F0188EC90E0A0E06E
:100C7000B0E08093400190934101A0934201B09372
:100C800043018091400190914101A0914201B091B6
:100C900043018093440190934501A0934601B09392
:100CA000470188EB93E090934901809348018D813F
:100CB00080934A0181E090E0A0E0B0E080934B0196
:100CC00090934C01A0934D01B0934E0180914B0144
:100CD00090914C01A0914D01B0914E0180934F0134
:100CE00090935001A0935101B093520188E894E091
:100CF00090935401809353018D818093550181E03D
:100D000090E0A0E0B0E08093560190935701A0934B
:100D10005801B09359018091560190915701A091CB
:100D20005801B091590180935A0190935B01A093AF
:100D30005C01B0935D018CEF94E090935F01809330
:100D40005E011092600181E090E0A0E0B0E080934D
:100D5000610190936201A0936301B093640180915B
:100D6000610190916201A0916301B091640180934F
:100D7000650190936601A0936701B093680186E8CE
:100D800095E090936A018093690161E070E080E0F2
:100D900090E00E94A2010E94D0011A8219829BC099
:100DA00089819A81880F991F9E012F5F3F4F820F83
:100DB000931F0596FC0180819181FC01258136817C
:100DC0004781508589819A81880F991FBE016F5F85
:100DD0007F4F860F971F0596FC0180819181FC0152
:100DE00081819281A381B481281739074A075B0763
:100DF00009F045C089819A81880F991F9E012F5F54
:100E00003F4F820F931F0596FC010081118189815C
:100E10009A81880F991F9E012F5F3F4F820F931F6A
:100E20000596FC0180819181FC01218532858981B3
:100E30009A81880F991FAE014F5F5F4F840F951FF6
:100E40000596FC0180819181FC018081082E000CB7
:100E5000990BF9010995F801808389819A81880F9E
:100E6000991F9E012F5F3F4F820F931F0596FC0134
:100E700080819181FC0115821682178210868981FA
:100E80009A81880F991F9E012F5F3F4F820F931FFA
:100E90000596FC012081318189819A81880F991FF3
:100EA000AE014F5F5F4F840F951F0596FC01808157
:100EB0009181FC0185819681A781B0850196A11D54
:100EC000B11DF90185839683A783B08789819A81B3
:100ED00001969A83898329813A818B819C81281785
:100EE000390708F45DCF000080912E018823E1F3DB
:100EF00010922E0152CFFC010FB6F894609171014F
:100F00007091720180917301909174010FBE3097BE
:100F100021F06083718382839383089597FB072E6A
:100F200016F4009407D077FD09D00E94C40707FC8F
:100F300005D03EF4909581959F4F089570956195E9
:100F40007F4F0895A1E21A2EAA1BBB1BFD010DC005
:100F5000AA1FBB1FEE1FFF1FA217B307E407F50769
:100F600020F0A21BB30BE40BF50B661F771F881F45
:100F7000991F1A9469F760957095809590959B01DB
:100F8000AC01BD01CF010895AA1BBB1B51E107C0F5
:100F9000AA1FBB1FA617B70710F0A61BB70B881F09
:100FA000991F5A95A9F780959095BC01CD01089598
:100FB0008F929F92AF92BF92CF92DF92EF92FF9269
:100FC000CF93DF93EC01688179818A819B816115E0
:100FD00071058105910521F464E279ED8BE597E0D7
:100FE0002DE133EF41E050E00E94320849015A01FF
:100FF0009B01AC01A7EAB1E40E9451086B017C019E
:10100000ACEEB4EFA50194010E945F08DC01CB01B6
:101010008C0D9D1DAE1DBF1DB7FF03C00197A1091B
:10102000B04888839983AA83BB839F77DF91CF9150
:10103000FF90EF90DF90CF90BF90AF909F908F90F8
:1010400008950C94D8078FE191E00C94D807A0E0A4
:10105000B0E080931F0190932001A0932101B093F1
:1010600022010895052E97FB1EF400940E94490862
:1010700057FD07D00E94A20707FC03D04EF40C9442
:10108000490850954095309521953F4F4F4F5F4F00
:10109000089590958095709561957F4F8F4F9F4FE4
:1010A00008950E946408A59F900DB49F900DA49F81
:1010B000800D911D11240895B7FF0C9451080E94D2
:1010C0005108821B930B0895A29FB001B39FC001EA
:1010D000A39F700D811D1124911DB29F700D811D64
:0A10E0001124911D0895F894FFCF2C
:1010EA00010000000000000200000000CD02000024
:1010FA00000080F301F308EF0101FEFDFBF7EF01A9
:0E110A0000000034013F014A01550160010060
:00000001FF
